{
  "_format": "hh-sol-artifact-1",
  "contractName": "Domains",
  "sourceName": "contracts/Domains.sol",
  "abi": [
    {
      "inputs": [
        {
          "internalType": "string",
          "name": "_tld",
          "type": "string"
        }
      ],
      "stateMutability": "payable",
      "type": "constructor"
    },
    {
      "anonymous": false,
      "inputs": [
        {
          "indexed": true,
          "internalType": "address",
          "name": "owner",
          "type": "address"
        },
        {
          "indexed": true,
          "internalType": "address",
          "name": "approved",
          "type": "address"
        },
        {
          "indexed": true,
          "internalType": "uint256",
          "name": "tokenId",
          "type": "uint256"
        }
      ],
      "name": "Approval",
      "type": "event"
    },
    {
      "anonymous": false,
      "inputs": [
        {
          "indexed": true,
          "internalType": "address",
          "name": "owner",
          "type": "address"
        },
        {
          "indexed": true,
          "internalType": "address",
          "name": "operator",
          "type": "address"
        },
        {
          "indexed": false,
          "internalType": "bool",
          "name": "approved",
          "type": "bool"
        }
      ],
      "name": "ApprovalForAll",
      "type": "event"
    },
    {
      "anonymous": false,
      "inputs": [
        {
          "indexed": true,
          "internalType": "address",
          "name": "from",
          "type": "address"
        },
        {
          "indexed": true,
          "internalType": "address",
          "name": "to",
          "type": "address"
        },
        {
          "indexed": true,
          "internalType": "uint256",
          "name": "tokenId",
          "type": "uint256"
        }
      ],
      "name": "Transfer",
      "type": "event"
    },
    {
      "inputs": [
        {
          "internalType": "address",
          "name": "to",
          "type": "address"
        },
        {
          "internalType": "uint256",
          "name": "tokenId",
          "type": "uint256"
        }
      ],
      "name": "approve",
      "outputs": [],
      "stateMutability": "nonpayable",
      "type": "function"
    },
    {
      "inputs": [
        {
          "internalType": "address",
          "name": "owner",
          "type": "address"
        }
      ],
      "name": "balanceOf",
      "outputs": [
        {
          "internalType": "uint256",
          "name": "",
          "type": "uint256"
        }
      ],
      "stateMutability": "view",
      "type": "function"
    },
    {
      "inputs": [
        {
          "internalType": "string",
          "name": "",
          "type": "string"
        }
      ],
      "name": "domains",
      "outputs": [
        {
          "internalType": "address",
          "name": "",
          "type": "address"
        }
      ],
      "stateMutability": "view",
      "type": "function"
    },
    {
      "inputs": [
        {
          "internalType": "string",
          "name": "name",
          "type": "string"
        }
      ],
      "name": "getAddress",
      "outputs": [
        {
          "internalType": "address",
          "name": "",
          "type": "address"
        }
      ],
      "stateMutability": "view",
      "type": "function"
    },
    {
      "inputs": [
        {
          "internalType": "uint256",
          "name": "tokenId",
          "type": "uint256"
        }
      ],
      "name": "getApproved",
      "outputs": [
        {
          "internalType": "address",
          "name": "",
          "type": "address"
        }
      ],
      "stateMutability": "view",
      "type": "function"
    },
    {
      "inputs": [
        {
          "internalType": "string",
          "name": "name",
          "type": "string"
        }
      ],
      "name": "getRecord",
      "outputs": [
        {
          "internalType": "address",
          "name": "",
          "type": "address"
        }
      ],
      "stateMutability": "view",
      "type": "function"
    },
    {
      "inputs": [
        {
          "internalType": "address",
          "name": "owner",
          "type": "address"
        },
        {
          "internalType": "address",
          "name": "operator",
          "type": "address"
        }
      ],
      "name": "isApprovedForAll",
      "outputs": [
        {
          "internalType": "bool",
          "name": "",
          "type": "bool"
        }
      ],
      "stateMutability": "view",
      "type": "function"
    },
    {
      "inputs": [],
      "name": "name",
      "outputs": [
        {
          "internalType": "string",
          "name": "",
          "type": "string"
        }
      ],
      "stateMutability": "view",
      "type": "function"
    },
    {
      "inputs": [
        {
          "internalType": "uint256",
          "name": "tokenId",
          "type": "uint256"
        }
      ],
      "name": "ownerOf",
      "outputs": [
        {
          "internalType": "address",
          "name": "",
          "type": "address"
        }
      ],
      "stateMutability": "view",
      "type": "function"
    },
    {
      "inputs": [
        {
          "internalType": "string",
          "name": "name",
          "type": "string"
        }
      ],
      "name": "price",
      "outputs": [
        {
          "internalType": "uint256",
          "name": "",
          "type": "uint256"
        }
      ],
      "stateMutability": "pure",
      "type": "function"
    },
    {
      "inputs": [
        {
          "internalType": "string",
          "name": "",
          "type": "string"
        }
      ],
      "name": "records",
      "outputs": [
        {
          "internalType": "address",
          "name": "",
          "type": "address"
        }
      ],
      "stateMutability": "view",
      "type": "function"
    },
    {
      "inputs": [
        {
          "internalType": "string",
          "name": "name",
          "type": "string"
        }
      ],
      "name": "register",
      "outputs": [],
      "stateMutability": "payable",
      "type": "function"
    },
    {
      "inputs": [
        {
          "internalType": "address",
          "name": "from",
          "type": "address"
        },
        {
          "internalType": "address",
          "name": "to",
          "type": "address"
        },
        {
          "internalType": "uint256",
          "name": "tokenId",
          "type": "uint256"
        }
      ],
      "name": "safeTransferFrom",
      "outputs": [],
      "stateMutability": "nonpayable",
      "type": "function"
    },
    {
      "inputs": [
        {
          "internalType": "address",
          "name": "from",
          "type": "address"
        },
        {
          "internalType": "address",
          "name": "to",
          "type": "address"
        },
        {
          "internalType": "uint256",
          "name": "tokenId",
          "type": "uint256"
        },
        {
          "internalType": "bytes",
          "name": "_data",
          "type": "bytes"
        }
      ],
      "name": "safeTransferFrom",
      "outputs": [],
      "stateMutability": "nonpayable",
      "type": "function"
    },
    {
      "inputs": [
        {
          "internalType": "address",
          "name": "operator",
          "type": "address"
        },
        {
          "internalType": "bool",
          "name": "approved",
          "type": "bool"
        }
      ],
      "name": "setApprovalForAll",
      "outputs": [],
      "stateMutability": "nonpayable",
      "type": "function"
    },
    {
      "inputs": [
        {
          "internalType": "string",
          "name": "name",
          "type": "string"
        }
      ],
      "name": "setRecord",
      "outputs": [],
      "stateMutability": "nonpayable",
      "type": "function"
    },
    {
      "inputs": [
        {
          "internalType": "bytes4",
          "name": "interfaceId",
          "type": "bytes4"
        }
      ],
      "name": "supportsInterface",
      "outputs": [
        {
          "internalType": "bool",
          "name": "",
          "type": "bool"
        }
      ],
      "stateMutability": "view",
      "type": "function"
    },
    {
      "inputs": [],
      "name": "symbol",
      "outputs": [
        {
          "internalType": "string",
          "name": "",
          "type": "string"
        }
      ],
      "stateMutability": "view",
      "type": "function"
    },
    {
      "inputs": [],
      "name": "tld",
      "outputs": [
        {
          "internalType": "string",
          "name": "",
          "type": "string"
        }
      ],
      "stateMutability": "view",
      "type": "function"
    },
    {
      "inputs": [
        {
          "internalType": "uint256",
          "name": "tokenId",
          "type": "uint256"
        }
      ],
      "name": "tokenURI",
      "outputs": [
        {
          "internalType": "string",
          "name": "",
          "type": "string"
        }
      ],
      "stateMutability": "view",
      "type": "function"
    },
    {
      "inputs": [
        {
          "internalType": "address",
          "name": "from",
          "type": "address"
        },
        {
          "internalType": "address",
          "name": "to",
          "type": "address"
        },
        {
          "internalType": "uint256",
          "name": "tokenId",
          "type": "uint256"
        }
      ],
      "name": "transferFrom",
      "outputs": [],
      "stateMutability": "nonpayable",
      "type": "function"
    }
  ],
  "bytecode": "0x6080604052604051806108a0016040528061086b81526020016200478c61086b9139600990805190602001906200003892919062000287565b506040518060400160405280600d81526020017f3c2f746578743e3c2f7376673e00000000000000000000000000000000000000815250600a90805190602001906200008692919062000287565b5060405162004ff738038062004ff78339818101604052810190620000ac9190620004d4565b6040518060400160405280601181526020017f4d657461204e616d6520536572766963650000000000000000000000000000008152506040518060400160405280600381526020017f4d4e53000000000000000000000000000000000000000000000000000000000081525081600090805190602001906200013092919062000287565b5080600190805190602001906200014992919062000287565b50505080600890805190602001906200016492919062000287565b50620001b16040518060400160405280601881526020017f2573206e616d652073657276696365206465706c6f796564000000000000000081525082620001b860201b620014611760201c565b5062000622565b6200025a8282604051602401620001d192919062000582565b6040516020818303038152906040527f4b5c4277000000000000000000000000000000000000000000000000000000007bffffffffffffffffffffffffffffffffffffffffffffffffffffffff19166020820180517bffffffffffffffffffffffffffffffffffffffffffffffffffffffff83818316178352505050506200025e60201b60201c565b5050565b60008151905060006a636f6e736f6c652e6c6f679050602083016000808483855afa5050505050565b8280546200029590620005ec565b90600052602060002090601f016020900481019282620002b9576000855562000305565b82601f10620002d457805160ff191683800117855562000305565b8280016001018555821562000305579182015b8281111562000304578251825591602001919060010190620002e7565b5b50905062000314919062000318565b5090565b5b808211156200033357600081600090555060010162000319565b5090565b6000604051905090565b600080fd5b600080fd5b600080fd5b600080fd5b6000601f19601f8301169050919050565b7f4e487b7100000000000000000000000000000000000000000000000000000000600052604160045260246000fd5b620003a08262000355565b810181811067ffffffffffffffff82111715620003c257620003c162000366565b5b80604052505050565b6000620003d762000337565b9050620003e5828262000395565b919050565b600067ffffffffffffffff82111562000408576200040762000366565b5b620004138262000355565b9050602081019050919050565b60005b838110156200044057808201518184015260208101905062000423565b8381111562000450576000848401525b50505050565b60006200046d6200046784620003ea565b620003cb565b9050828152602081018484840111156200048c576200048b62000350565b5b6200049984828562000420565b509392505050565b600082601f830112620004b957620004b86200034b565b5b8151620004cb84826020860162000456565b91505092915050565b600060208284031215620004ed57620004ec62000341565b5b600082015167ffffffffffffffff8111156200050e576200050d62000346565b5b6200051c84828501620004a1565b91505092915050565b600081519050919050565b600082825260208201905092915050565b60006200054e8262000525565b6200055a818562000530565b93506200056c81856020860162000420565b620005778162000355565b840191505092915050565b600060408201905081810360008301526200059e818562000541565b90508181036020830152620005b4818462000541565b90509392505050565b7f4e487b7100000000000000000000000000000000000000000000000000000000600052602260045260246000fd5b600060028204905060018216806200060557607f821691505b602082108114156200061c576200061b620005bd565b5b50919050565b61415a80620006326000396000f3fe60806040526004361061012a5760003560e01c8063541e771d116100ab578063b88d4fde1161006f578063b88d4fde14610428578063bf40fac114610451578063c87b56dd1461048e578063e985e9c5146104cb578063f2c298be14610508578063fe2c6198146105245761012a565b8063541e771d1461031d5780636352211e1461035a57806370a082311461039757806395d89b41146103d4578063a22cb465146103ff5761012a565b806323b872dd116100f257806323b872dd1461023a57806326449235146102635780632d551432146102a05780633e0a0099146102cb57806342842e0e146102f45761012a565b806301ffc9a71461012f57806306fdde031461016c578063081812fc14610197578063095ea7b3146101d457806311dd8845146101fd575b600080fd5b34801561013b57600080fd5b5061015660048036038101906101519190612821565b610561565b6040516101639190612869565b60405180910390f35b34801561017857600080fd5b50610181610643565b60405161018e919061291d565b60405180910390f35b3480156101a357600080fd5b506101be60048036038101906101b99190612975565b6106d5565b6040516101cb91906129e3565b60405180910390f35b3480156101e057600080fd5b506101fb60048036038101906101f69190612a2a565b61075a565b005b34801561020957600080fd5b50610224600480360381019061021f9190612acf565b610872565b60405161023191906129e3565b60405180910390f35b34801561024657600080fd5b50610261600480360381019061025c9190612b1c565b6108bd565b005b34801561026f57600080fd5b5061028a60048036038101906102859190612c9f565b61091d565b60405161029791906129e3565b60405180910390f35b3480156102ac57600080fd5b506102b5610966565b6040516102c2919061291d565b60405180910390f35b3480156102d757600080fd5b506102f260048036038101906102ed9190612acf565b6109f4565b005b34801561030057600080fd5b5061031b60048036038101906103169190612b1c565b610acf565b005b34801561032957600080fd5b50610344600480360381019061033f9190612c9f565b610aef565b60405161035191906129e3565b60405180910390f35b34801561036657600080fd5b50610381600480360381019061037c9190612975565b610b38565b60405161038e91906129e3565b60405180910390f35b3480156103a357600080fd5b506103be60048036038101906103b99190612ce8565b610bea565b6040516103cb9190612d24565b60405180910390f35b3480156103e057600080fd5b506103e9610ca2565b6040516103f6919061291d565b60405180910390f35b34801561040b57600080fd5b5061042660048036038101906104219190612d6b565b610d34565b005b34801561043457600080fd5b5061044f600480360381019061044a9190612e4c565b610d4a565b005b34801561045d57600080fd5b5061047860048036038101906104739190612acf565b610dac565b60405161048591906129e3565b60405180910390f35b34801561049a57600080fd5b506104b560048036038101906104b09190612975565b610df7565b6040516104c2919061291d565b60405180910390f35b3480156104d757600080fd5b506104f260048036038101906104ed9190612ecf565b610f49565b6040516104ff9190612869565b60405180910390f35b610522600480360381019061051d9190612acf565b610fdd565b005b34801561053057600080fd5b5061054b60048036038101906105469190612acf565b6113be565b6040516105589190612d24565b60405180910390f35b60007f80ac58cd000000000000000000000000000000000000000000000000000000007bffffffffffffffffffffffffffffffffffffffffffffffffffffffff1916827bffffffffffffffffffffffffffffffffffffffffffffffffffffffff1916148061062c57507f5b5e139f000000000000000000000000000000000000000000000000000000007bffffffffffffffffffffffffffffffffffffffffffffffffffffffff1916827bffffffffffffffffffffffffffffffffffffffffffffffffffffffff1916145b8061063c575061063b826114fd565b5b9050919050565b60606000805461065290612f3e565b80601f016020809104026020016040519081016040528092919081815260200182805461067e90612f3e565b80156106cb5780601f106106a0576101008083540402835291602001916106cb565b820191906000526020600020905b8154815290600101906020018083116106ae57829003601f168201915b5050505050905090565b60006106e082611567565b61071f576040517f08c379a000000000000000000000000000000000000000000000000000000000815260040161071690612fe2565b60405180910390fd5b6004600083815260200190815260200160002060009054906101000a900473ffffffffffffffffffffffffffffffffffffffff169050919050565b600061076582610b38565b90508073ffffffffffffffffffffffffffffffffffffffff168373ffffffffffffffffffffffffffffffffffffffff1614156107d6576040517f08c379a00000000000000000000000000000000000000000000000000000000081526004016107cd90613074565b60405180910390fd5b8073ffffffffffffffffffffffffffffffffffffffff166107f56115d3565b73ffffffffffffffffffffffffffffffffffffffff16148061082457506108238161081e6115d3565b610f49565b5b610863576040517f08c379a000000000000000000000000000000000000000000000000000000000815260040161085a90613106565b60405180910390fd5b61086d83836115db565b505050565b6000600c8383604051610886929190613156565b908152602001604051809103902060009054906101000a900473ffffffffffffffffffffffffffffffffffffffff16905092915050565b6108ce6108c86115d3565b82611694565b61090d576040517f08c379a0000000000000000000000000000000000000000000000000000000008152600401610904906131e1565b60405180910390fd5b610918838383611772565b505050565b600b818051602081018201805184825260208301602085012081835280955050505050506000915054906101000a900473ffffffffffffffffffffffffffffffffffffffff1681565b6008805461097390612f3e565b80601f016020809104026020016040519081016040528092919081815260200182805461099f90612f3e565b80156109ec5780601f106109c1576101008083540402835291602001916109ec565b820191906000526020600020905b8154815290600101906020018083116109cf57829003601f168201915b505050505081565b3373ffffffffffffffffffffffffffffffffffffffff16600b8383604051610a1d929190613156565b908152602001604051809103902060009054906101000a900473ffffffffffffffffffffffffffffffffffffffff1673ffffffffffffffffffffffffffffffffffffffff1614610a6c57600080fd5b33600c8383604051610a7f929190613156565b908152602001604051809103902060006101000a81548173ffffffffffffffffffffffffffffffffffffffff021916908373ffffffffffffffffffffffffffffffffffffffff1602179055505050565b610aea83838360405180602001604052806000815250610d4a565b505050565b600c818051602081018201805184825260208301602085012081835280955050505050506000915054906101000a900473ffffffffffffffffffffffffffffffffffffffff1681565b6000806002600084815260200190815260200160002060009054906101000a900473ffffffffffffffffffffffffffffffffffffffff169050600073ffffffffffffffffffffffffffffffffffffffff168173ffffffffffffffffffffffffffffffffffffffff161415610be1576040517f08c379a0000000000000000000000000000000000000000000000000000000008152600401610bd890613273565b60405180910390fd5b80915050919050565b60008073ffffffffffffffffffffffffffffffffffffffff168273ffffffffffffffffffffffffffffffffffffffff161415610c5b576040517f08c379a0000000000000000000000000000000000000000000000000000000008152600401610c5290613305565b60405180910390fd5b600360008373ffffffffffffffffffffffffffffffffffffffff1673ffffffffffffffffffffffffffffffffffffffff168152602001908152602001600020549050919050565b606060018054610cb190612f3e565b80601f0160208091040260200160405190810160405280929190818152602001828054610cdd90612f3e565b8015610d2a5780601f10610cff57610100808354040283529160200191610d2a565b820191906000526020600020905b815481529060010190602001808311610d0d57829003601f168201915b5050505050905090565b610d46610d3f6115d3565b83836119d9565b5050565b610d5b610d556115d3565b83611694565b610d9a576040517f08c379a0000000000000000000000000000000000000000000000000000000008152600401610d91906131e1565b60405180910390fd5b610da684848484611b46565b50505050565b6000600b8383604051610dc0929190613156565b908152602001604051809103902060009054906101000a900473ffffffffffffffffffffffffffffffffffffffff16905092915050565b6060610e0282611567565b610e41576040517f08c379a0000000000000000000000000000000000000000000000000000000008152600401610e3890613397565b60405180910390fd5b6000600660008481526020019081526020016000208054610e6190612f3e565b80601f0160208091040260200160405190810160405280929190818152602001828054610e8d90612f3e565b8015610eda5780601f10610eaf57610100808354040283529160200191610eda565b820191906000526020600020905b815481529060010190602001808311610ebd57829003601f168201915b505050505090506000610eeb611ba2565b9050600081511415610f01578192505050610f44565b600082511115610f36578082604051602001610f1e9291906133e8565b60405160208183030381529060405292505050610f44565b610f3f84611bb9565b925050505b919050565b6000600560008473ffffffffffffffffffffffffffffffffffffffff1673ffffffffffffffffffffffffffffffffffffffff16815260200190815260200160002060008373ffffffffffffffffffffffffffffffffffffffff1673ffffffffffffffffffffffffffffffffffffffff16815260200190815260200160002060009054906101000a900460ff16905092915050565b600073ffffffffffffffffffffffffffffffffffffffff16600b8383604051611007929190613156565b908152602001604051809103902060009054906101000a900473ffffffffffffffffffffffffffffffffffffffff1673ffffffffffffffffffffffffffffffffffffffff161461105657600080fd5b600061106283836113be565b9050803410156110a7576040517f08c379a000000000000000000000000000000000000000000000000000000000815260040161109e90613458565b60405180910390fd5b6000838360086040516020016110bf93929190613558565b60405160208183030381529060405290506000600982600a6040516020016110e993929190613589565b604051602081830303815290604052905060006111066007611c60565b9050600061115787878080601f016020809104026020016040519081016040528093929190818152602001838380828437600081840152601f19601f82011690508083019250505050505050611c6e565b9050600061116482611e23565b905061125860405180606001604052806031815260200161407b6031913989898080601f016020809104026020016040519081016040528093929190818152602001838380828437600081840152601f19601f82011690508083019250505050505050600880546111d490612f3e565b80601f016020809104026020016040519081016040528092919081815260200182805461120090612f3e565b801561124d5780601f106112225761010080835404028352916020019161124d565b820191906000526020600020905b81548152906001019060200180831161123057829003601f168201915b505050505086611f84565b600061128e8661126787612026565b8460405160200161127a93929190613736565b604051602081830303815290604052612026565b90506000816040516020016112a391906137df565b60405160208183030381529060405290506112d5604051806060016040528060398152602001614042603991396121be565b6113146040518060400160405280600e81526020017f46696e616c20746f6b656e55524900000000000000000000000000000000000081525082611461565b6113356040518060600160405280603981526020016140ac603991396121be565b61133f3386612257565b6113498582612275565b33600b8b8b60405161135c929190613156565b908152602001604051809103902060006101000a81548173ffffffffffffffffffffffffffffffffffffffff021916908373ffffffffffffffffffffffffffffffffffffffff1602179055506113b260076122e9565b50505050505050505050565b60008061140e84848080601f016020809104026020016040519081016040528093929190818152602001838380828437600081840152601f19601f82011690508083019250505050505050611c6e565b90506000811161141d57600080fd5b60038114156114365766b1a2bc2ec5000091505061145b565b600481141561144f57666a94d74f43000091505061145b565b662386f26fc100009150505b92915050565b6114f98282604051602401611477929190613801565b6040516020818303038152906040527f4b5c4277000000000000000000000000000000000000000000000000000000007bffffffffffffffffffffffffffffffffffffffffffffffffffffffff19166020820180517bffffffffffffffffffffffffffffffffffffffffffffffffffffffff83818316178352505050506122ff565b5050565b60007f01ffc9a7000000000000000000000000000000000000000000000000000000007bffffffffffffffffffffffffffffffffffffffffffffffffffffffff1916827bffffffffffffffffffffffffffffffffffffffffffffffffffffffff1916149050919050565b60008073ffffffffffffffffffffffffffffffffffffffff166002600084815260200190815260200160002060009054906101000a900473ffffffffffffffffffffffffffffffffffffffff1673ffffffffffffffffffffffffffffffffffffffff1614159050919050565b600033905090565b816004600083815260200190815260200160002060006101000a81548173ffffffffffffffffffffffffffffffffffffffff021916908373ffffffffffffffffffffffffffffffffffffffff160217905550808273ffffffffffffffffffffffffffffffffffffffff1661164e83610b38565b73ffffffffffffffffffffffffffffffffffffffff167f8c5be1e5ebec7d5bd14f71427d1e84f3dd0314c0f7b2291e5b200ac8c7c3b92560405160405180910390a45050565b600061169f82611567565b6116de576040517f08c379a00000000000000000000000000000000000000000000000000000000081526004016116d5906138aa565b60405180910390fd5b60006116e983610b38565b90508073ffffffffffffffffffffffffffffffffffffffff168473ffffffffffffffffffffffffffffffffffffffff16148061175857508373ffffffffffffffffffffffffffffffffffffffff16611740846106d5565b73ffffffffffffffffffffffffffffffffffffffff16145b8061176957506117688185610f49565b5b91505092915050565b8273ffffffffffffffffffffffffffffffffffffffff1661179282610b38565b73ffffffffffffffffffffffffffffffffffffffff16146117e8576040517f08c379a00000000000000000000000000000000000000000000000000000000081526004016117df9061393c565b60405180910390fd5b600073ffffffffffffffffffffffffffffffffffffffff168273ffffffffffffffffffffffffffffffffffffffff161415611858576040517f08c379a000000000000000000000000000000000000000000000000000000000815260040161184f906139ce565b60405180910390fd5b611863838383612328565b61186e6000826115db565b6001600360008573ffffffffffffffffffffffffffffffffffffffff1673ffffffffffffffffffffffffffffffffffffffff16815260200190815260200160002060008282546118be9190613a1d565b925050819055506001600360008473ffffffffffffffffffffffffffffffffffffffff1673ffffffffffffffffffffffffffffffffffffffff16815260200190815260200160002060008282546119159190613a51565b92505081905550816002600083815260200190815260200160002060006101000a81548173ffffffffffffffffffffffffffffffffffffffff021916908373ffffffffffffffffffffffffffffffffffffffff160217905550808273ffffffffffffffffffffffffffffffffffffffff168473ffffffffffffffffffffffffffffffffffffffff167fddf252ad1be2c89b69c2b068fc378daa952ba7f163c4a11628f55a4df523b3ef60405160405180910390a46119d483838361232d565b505050565b8173ffffffffffffffffffffffffffffffffffffffff168373ffffffffffffffffffffffffffffffffffffffff161415611a48576040517f08c379a0000000000000000000000000000000000000000000000000000000008152600401611a3f90613af3565b60405180910390fd5b80600560008573ffffffffffffffffffffffffffffffffffffffff1673ffffffffffffffffffffffffffffffffffffffff16815260200190815260200160002060008473ffffffffffffffffffffffffffffffffffffffff1673ffffffffffffffffffffffffffffffffffffffff16815260200190815260200160002060006101000a81548160ff0219169083151502179055508173ffffffffffffffffffffffffffffffffffffffff168373ffffffffffffffffffffffffffffffffffffffff167f17307eab39ab6107e8899845ad3d59bd9653f200f220920489ca2b5937696c3183604051611b399190612869565b60405180910390a3505050565b611b51848484611772565b611b5d84848484612332565b611b9c576040517f08c379a0000000000000000000000000000000000000000000000000000000008152600401611b9390613b85565b60405180910390fd5b50505050565b606060405180602001604052806000815250905090565b6060611bc482611567565b611c03576040517f08c379a0000000000000000000000000000000000000000000000000000000008152600401611bfa90613c17565b60405180910390fd5b6000611c0d611ba2565b90506000815111611c2d5760405180602001604052806000815250611c58565b80611c3784611e23565b604051602001611c489291906133e8565b6040516020818303038152906040525b915050919050565b600081600001549050919050565b60008060008084519050600092505b80821015611e18576000858381518110611c9a57611c99613c37565b5b602001015160f81c60f81b9050608060f81b817effffffffffffffffffffffffffffffffffffffffffffffffffffffffffffff19161015611ce957600183611ce29190613a51565b9250611e04565b60e060f81b817effffffffffffffffffffffffffffffffffffffffffffffffffffffffffffff19161015611d2b57600283611d249190613a51565b9250611e03565b60f060f81b817effffffffffffffffffffffffffffffffffffffffffffffffffffffffffffff19161015611d6d57600383611d669190613a51565b9250611e02565b60f8801b817effffffffffffffffffffffffffffffffffffffffffffffffffffffffffffff19161015611dae57600483611da79190613a51565b9250611e01565b60fc60f81b817effffffffffffffffffffffffffffffffffffffffffffffffffffffffffffff19161015611df057600583611de99190613a51565b9250611e00565b600683611dfd9190613a51565b92505b5b5b5b5b508280611e1090613c66565b935050611c7d565b829350505050919050565b60606000821415611e6b576040518060400160405280600181526020017f30000000000000000000000000000000000000000000000000000000000000008152509050611f7f565b600082905060005b60008214611e9d578080611e8690613c66565b915050600a82611e969190613cde565b9150611e73565b60008167ffffffffffffffff811115611eb957611eb8612b74565b5b6040519080825280601f01601f191660200182016040528015611eeb5781602001600182028036833780820191505090505b5090505b60008514611f7857600182611f049190613a1d565b9150600a85611f139190613d0f565b6030611f1f9190613a51565b60f81b818381518110611f3557611f34613c37565b5b60200101907effffffffffffffffffffffffffffffffffffffffffffffffffffffffffffff1916908160001a905350600a85611f719190613cde565b9450611eef565b8093505050505b919050565b61202084848484604051602401611f9e9493929190613d40565b6040516020818303038152906040527f9fd009f5000000000000000000000000000000000000000000000000000000007bffffffffffffffffffffffffffffffffffffffffffffffffffffffff19166020820180517bffffffffffffffffffffffffffffffffffffffffffffffffffffffff83818316178352505050506122ff565b50505050565b6060600082519050600081141561204f57604051806020016040528060008152509150506121b9565b600060036002836120609190613a51565b61206a9190613cde565b60046120769190613d9a565b905060006020826120879190613a51565b67ffffffffffffffff8111156120a05761209f612b74565b5b6040519080825280601f01601f1916602001820160405280156120d25781602001600182028036833780820191505090505b50905060006040518060600160405280604081526020016140e5604091399050600181016020830160005b868110156121765760038101905062ffffff818a015116603f8160121c168401518060081b905060ff603f83600c1c1686015116810190508060081b905060ff603f8360061c1686015116810190508060081b905060ff603f831686015116810190508060e01b905080845260048401935050506120fd565b50600386066001811461219057600281146121a0576121ab565b613d3d60f01b60028303526121ab565b603d60f81b60018303525b508484525050819450505050505b919050565b612254816040516024016121d2919061291d565b6040516020818303038152906040527f41304fac000000000000000000000000000000000000000000000000000000007bffffffffffffffffffffffffffffffffffffffffffffffffffffffff19166020820180517bffffffffffffffffffffffffffffffffffffffffffffffffffffffff83818316178352505050506122ff565b50565b6122718282604051806020016040528060008152506124ba565b5050565b61227e82611567565b6122bd576040517f08c379a00000000000000000000000000000000000000000000000000000000081526004016122b490613e66565b60405180910390fd5b806006600084815260200190815260200160002090805190602001906122e4929190612712565b505050565b6001816000016000828254019250508190555050565b60008151905060006a636f6e736f6c652e6c6f679050602083016000808483855afa5050505050565b505050565b505050565b60006123538473ffffffffffffffffffffffffffffffffffffffff16612515565b156124ad578373ffffffffffffffffffffffffffffffffffffffff1663150b7a0261237c6115d3565b8786866040518563ffffffff1660e01b815260040161239e9493929190613edb565b6020604051808303816000875af19250505080156123da57506040513d601f19601f820116820180604052508101906123d79190613f3c565b60015b61245d573d806000811461240a576040519150601f19603f3d011682016040523d82523d6000602084013e61240f565b606091505b50600081511415612455576040517f08c379a000000000000000000000000000000000000000000000000000000000815260040161244c90613b85565b60405180910390fd5b805181602001fd5b63150b7a0260e01b7bffffffffffffffffffffffffffffffffffffffffffffffffffffffff1916817bffffffffffffffffffffffffffffffffffffffffffffffffffffffff1916149150506124b2565b600190505b949350505050565b6124c48383612538565b6124d16000848484612332565b612510576040517f08c379a000000000000000000000000000000000000000000000000000000000815260040161250790613b85565b60405180910390fd5b505050565b6000808273ffffffffffffffffffffffffffffffffffffffff163b119050919050565b600073ffffffffffffffffffffffffffffffffffffffff168273ffffffffffffffffffffffffffffffffffffffff1614156125a8576040517f08c379a000000000000000000000000000000000000000000000000000000000815260040161259f90613fb5565b60405180910390fd5b6125b181611567565b156125f1576040517f08c379a00000000000000000000000000000000000000000000000000000000081526004016125e890614021565b60405180910390fd5b6125fd60008383612328565b6001600360008473ffffffffffffffffffffffffffffffffffffffff1673ffffffffffffffffffffffffffffffffffffffff168152602001908152602001600020600082825461264d9190613a51565b92505081905550816002600083815260200190815260200160002060006101000a81548173ffffffffffffffffffffffffffffffffffffffff021916908373ffffffffffffffffffffffffffffffffffffffff160217905550808273ffffffffffffffffffffffffffffffffffffffff16600073ffffffffffffffffffffffffffffffffffffffff167fddf252ad1be2c89b69c2b068fc378daa952ba7f163c4a11628f55a4df523b3ef60405160405180910390a461270e6000838361232d565b5050565b82805461271e90612f3e565b90600052602060002090601f0160209004810192826127405760008555612787565b82601f1061275957805160ff1916838001178555612787565b82800160010185558215612787579182015b8281111561278657825182559160200191906001019061276b565b5b5090506127949190612798565b5090565b5b808211156127b1576000816000905550600101612799565b5090565b6000604051905090565b600080fd5b600080fd5b60007fffffffff0000000000000000000000000000000000000000000000000000000082169050919050565b6127fe816127c9565b811461280957600080fd5b50565b60008135905061281b816127f5565b92915050565b600060208284031215612837576128366127bf565b5b60006128458482850161280c565b91505092915050565b60008115159050919050565b6128638161284e565b82525050565b600060208201905061287e600083018461285a565b92915050565b600081519050919050565b600082825260208201905092915050565b60005b838110156128be5780820151818401526020810190506128a3565b838111156128cd576000848401525b50505050565b6000601f19601f8301169050919050565b60006128ef82612884565b6128f9818561288f565b93506129098185602086016128a0565b612912816128d3565b840191505092915050565b6000602082019050818103600083015261293781846128e4565b905092915050565b6000819050919050565b6129528161293f565b811461295d57600080fd5b50565b60008135905061296f81612949565b92915050565b60006020828403121561298b5761298a6127bf565b5b600061299984828501612960565b91505092915050565b600073ffffffffffffffffffffffffffffffffffffffff82169050919050565b60006129cd826129a2565b9050919050565b6129dd816129c2565b82525050565b60006020820190506129f860008301846129d4565b92915050565b612a07816129c2565b8114612a1257600080fd5b50565b600081359050612a24816129fe565b92915050565b60008060408385031215612a4157612a406127bf565b5b6000612a4f85828601612a15565b9250506020612a6085828601612960565b9150509250929050565b600080fd5b600080fd5b600080fd5b60008083601f840112612a8f57612a8e612a6a565b5b8235905067ffffffffffffffff811115612aac57612aab612a6f565b5b602083019150836001820283011115612ac857612ac7612a74565b5b9250929050565b60008060208385031215612ae657612ae56127bf565b5b600083013567ffffffffffffffff811115612b0457612b036127c4565b5b612b1085828601612a79565b92509250509250929050565b600080600060608486031215612b3557612b346127bf565b5b6000612b4386828701612a15565b9350506020612b5486828701612a15565b9250506040612b6586828701612960565b9150509250925092565b600080fd5b7f4e487b7100000000000000000000000000000000000000000000000000000000600052604160045260246000fd5b612bac826128d3565b810181811067ffffffffffffffff82111715612bcb57612bca612b74565b5b80604052505050565b6000612bde6127b5565b9050612bea8282612ba3565b919050565b600067ffffffffffffffff821115612c0a57612c09612b74565b5b612c13826128d3565b9050602081019050919050565b82818337600083830152505050565b6000612c42612c3d84612bef565b612bd4565b905082815260208101848484011115612c5e57612c5d612b6f565b5b612c69848285612c20565b509392505050565b600082601f830112612c8657612c85612a6a565b5b8135612c96848260208601612c2f565b91505092915050565b600060208284031215612cb557612cb46127bf565b5b600082013567ffffffffffffffff811115612cd357612cd26127c4565b5b612cdf84828501612c71565b91505092915050565b600060208284031215612cfe57612cfd6127bf565b5b6000612d0c84828501612a15565b91505092915050565b612d1e8161293f565b82525050565b6000602082019050612d396000830184612d15565b92915050565b612d488161284e565b8114612d5357600080fd5b50565b600081359050612d6581612d3f565b92915050565b60008060408385031215612d8257612d816127bf565b5b6000612d9085828601612a15565b9250506020612da185828601612d56565b9150509250929050565b600067ffffffffffffffff821115612dc657612dc5612b74565b5b612dcf826128d3565b9050602081019050919050565b6000612def612dea84612dab565b612bd4565b905082815260208101848484011115612e0b57612e0a612b6f565b5b612e16848285612c20565b509392505050565b600082601f830112612e3357612e32612a6a565b5b8135612e43848260208601612ddc565b91505092915050565b60008060008060808587031215612e6657612e656127bf565b5b6000612e7487828801612a15565b9450506020612e8587828801612a15565b9350506040612e9687828801612960565b925050606085013567ffffffffffffffff811115612eb757612eb66127c4565b5b612ec387828801612e1e565b91505092959194509250565b60008060408385031215612ee657612ee56127bf565b5b6000612ef485828601612a15565b9250506020612f0585828601612a15565b9150509250929050565b7f4e487b7100000000000000000000000000000000000000000000000000000000600052602260045260246000fd5b60006002820490506001821680612f5657607f821691505b60208210811415612f6a57612f69612f0f565b5b50919050565b7f4552433732313a20617070726f76656420717565727920666f72206e6f6e657860008201527f697374656e7420746f6b656e0000000000000000000000000000000000000000602082015250565b6000612fcc602c8361288f565b9150612fd782612f70565b604082019050919050565b60006020820190508181036000830152612ffb81612fbf565b9050919050565b7f4552433732313a20617070726f76616c20746f2063757272656e74206f776e6560008201527f7200000000000000000000000000000000000000000000000000000000000000602082015250565b600061305e60218361288f565b915061306982613002565b604082019050919050565b6000602082019050818103600083015261308d81613051565b9050919050565b7f4552433732313a20617070726f76652063616c6c6572206973206e6f74206f7760008201527f6e6572206e6f7220617070726f76656420666f7220616c6c0000000000000000602082015250565b60006130f060388361288f565b91506130fb82613094565b604082019050919050565b6000602082019050818103600083015261311f816130e3565b9050919050565b600081905092915050565b600061313d8385613126565b935061314a838584612c20565b82840190509392505050565b6000613163828486613131565b91508190509392505050565b7f4552433732313a207472616e736665722063616c6c6572206973206e6f74206f60008201527f776e6572206e6f7220617070726f766564000000000000000000000000000000602082015250565b60006131cb60318361288f565b91506131d68261316f565b604082019050919050565b600060208201905081810360008301526131fa816131be565b9050919050565b7f4552433732313a206f776e657220717565727920666f72206e6f6e657869737460008201527f656e7420746f6b656e0000000000000000000000000000000000000000000000602082015250565b600061325d60298361288f565b915061326882613201565b604082019050919050565b6000602082019050818103600083015261328c81613250565b9050919050565b7f4552433732313a2062616c616e636520717565727920666f7220746865207a6560008201527f726f206164647265737300000000000000000000000000000000000000000000602082015250565b60006132ef602a8361288f565b91506132fa82613293565b604082019050919050565b6000602082019050818103600083015261331e816132e2565b9050919050565b7f45524337323155524953746f726167653a2055524920717565727920666f722060008201527f6e6f6e6578697374656e7420746f6b656e000000000000000000000000000000602082015250565b600061338160318361288f565b915061338c82613325565b604082019050919050565b600060208201905081810360008301526133b081613374565b9050919050565b60006133c282612884565b6133cc8185613126565b93506133dc8185602086016128a0565b80840191505092915050565b60006133f482856133b7565b915061340082846133b7565b91508190509392505050565b7f4e6f7420656e6f756768204d6174696320706169640000000000000000000000600082015250565b600061344260158361288f565b915061344d8261340c565b602082019050919050565b6000602082019050818103600083015261347181613435565b9050919050565b7f2e00000000000000000000000000000000000000000000000000000000000000600082015250565b60006134ae600183613126565b91506134b982613478565b600182019050919050565b60008190508160005260206000209050919050565b600081546134e681612f3e565b6134f08186613126565b9450600182166000811461350b576001811461351c5761354f565b60ff1983168652818601935061354f565b613525856134c4565b60005b8381101561354757815481890152600182019150602081019050613528565b838801955050505b50505092915050565b6000613565828587613131565b9150613570826134a1565b915061357c82846134d9565b9150819050949350505050565b600061359582866134d9565b91506135a182856133b7565b91506135ad82846134d9565b9150819050949350505050565b7f7b226e616d65223a202200000000000000000000000000000000000000000000600082015250565b60006135f0600a83613126565b91506135fb826135ba565b600a82019050919050565b7f222c20226465736372697074696f6e223a20224120646f6d61696e206f6e207460008201527f6865206d657461206e616d652073657276696365222c2022696d616765223a2060208201527f22646174613a696d6167652f7376672b786d6c3b6261736536342c0000000000604082015250565b6000613688605b83613126565b915061369382613606565b605b82019050919050565b7f222c226c656e677468223a220000000000000000000000000000000000000000600082015250565b60006136d4600c83613126565b91506136df8261369e565b600c82019050919050565b7f227d000000000000000000000000000000000000000000000000000000000000600082015250565b6000613720600283613126565b915061372b826136ea565b600282019050919050565b6000613741826135e3565b915061374d82866133b7565b91506137588261367b565b915061376482856133b7565b915061376f826136c7565b915061377b82846133b7565b915061378682613713565b9150819050949350505050565b7f646174613a6170706c69636174696f6e2f6a736f6e3b6261736536342c000000600082015250565b60006137c9601d83613126565b91506137d482613793565b601d82019050919050565b60006137ea826137bc565b91506137f682846133b7565b915081905092915050565b6000604082019050818103600083015261381b81856128e4565b9050818103602083015261382f81846128e4565b90509392505050565b7f4552433732313a206f70657261746f7220717565727920666f72206e6f6e657860008201527f697374656e7420746f6b656e0000000000000000000000000000000000000000602082015250565b6000613894602c8361288f565b915061389f82613838565b604082019050919050565b600060208201905081810360008301526138c381613887565b9050919050565b7f4552433732313a207472616e736665722066726f6d20696e636f72726563742060008201527f6f776e6572000000000000000000000000000000000000000000000000000000602082015250565b600061392660258361288f565b9150613931826138ca565b604082019050919050565b6000602082019050818103600083015261395581613919565b9050919050565b7f4552433732313a207472616e7366657220746f20746865207a65726f2061646460008201527f7265737300000000000000000000000000000000000000000000000000000000602082015250565b60006139b860248361288f565b91506139c38261395c565b604082019050919050565b600060208201905081810360008301526139e7816139ab565b9050919050565b7f4e487b7100000000000000000000000000000000000000000000000000000000600052601160045260246000fd5b6000613a288261293f565b9150613a338361293f565b925082821015613a4657613a456139ee565b5b828203905092915050565b6000613a5c8261293f565b9150613a678361293f565b9250827fffffffffffffffffffffffffffffffffffffffffffffffffffffffffffffffff03821115613a9c57613a9b6139ee565b5b828201905092915050565b7f4552433732313a20617070726f766520746f2063616c6c657200000000000000600082015250565b6000613add60198361288f565b9150613ae882613aa7565b602082019050919050565b60006020820190508181036000830152613b0c81613ad0565b9050919050565b7f4552433732313a207472616e7366657220746f206e6f6e20455243373231526560008201527f63656976657220696d706c656d656e7465720000000000000000000000000000602082015250565b6000613b6f60328361288f565b9150613b7a82613b13565b604082019050919050565b60006020820190508181036000830152613b9e81613b62565b9050919050565b7f4552433732314d657461646174613a2055524920717565727920666f72206e6f60008201527f6e6578697374656e7420746f6b656e0000000000000000000000000000000000602082015250565b6000613c01602f8361288f565b9150613c0c82613ba5565b604082019050919050565b60006020820190508181036000830152613c3081613bf4565b9050919050565b7f4e487b7100000000000000000000000000000000000000000000000000000000600052603260045260246000fd5b6000613c718261293f565b91507fffffffffffffffffffffffffffffffffffffffffffffffffffffffffffffffff821415613ca457613ca36139ee565b5b600182019050919050565b7f4e487b7100000000000000000000000000000000000000000000000000000000600052601260045260246000fd5b6000613ce98261293f565b9150613cf48361293f565b925082613d0457613d03613caf565b5b828204905092915050565b6000613d1a8261293f565b9150613d258361293f565b925082613d3557613d34613caf565b5b828206905092915050565b60006080820190508181036000830152613d5a81876128e4565b90508181036020830152613d6e81866128e4565b90508181036040830152613d8281856128e4565b9050613d916060830184612d15565b95945050505050565b6000613da58261293f565b9150613db08361293f565b9250817fffffffffffffffffffffffffffffffffffffffffffffffffffffffffffffffff0483118215151615613de957613de86139ee565b5b828202905092915050565b7f45524337323155524953746f726167653a2055524920736574206f66206e6f6e60008201527f6578697374656e7420746f6b656e000000000000000000000000000000000000602082015250565b6000613e50602e8361288f565b9150613e5b82613df4565b604082019050919050565b60006020820190508181036000830152613e7f81613e43565b9050919050565b600081519050919050565b600082825260208201905092915050565b6000613ead82613e86565b613eb78185613e91565b9350613ec78185602086016128a0565b613ed0816128d3565b840191505092915050565b6000608082019050613ef060008301876129d4565b613efd60208301866129d4565b613f0a6040830185612d15565b8181036060830152613f1c8184613ea2565b905095945050505050565b600081519050613f36816127f5565b92915050565b600060208284031215613f5257613f516127bf565b5b6000613f6084828501613f27565b91505092915050565b7f4552433732313a206d696e7420746f20746865207a65726f2061646472657373600082015250565b6000613f9f60208361288f565b9150613faa82613f69565b602082019050919050565b60006020820190508181036000830152613fce81613f92565b9050919050565b7f4552433732313a20746f6b656e20616c7265616479206d696e74656400000000600082015250565b600061400b601c8361288f565b915061401682613fd5565b602082019050919050565b6000602082019050818103600083015261403a81613ffe565b905091905056fe0a2d2d2d2d2d2d2d2d2d2d2d2d2d2d2d2d2d2d2d2d2d2d2d2d2d2d2d2d2d2d2d2d2d2d2d2d2d2d2d2d2d2d2d2d2d2d2d2d2d2d2d2d2d2d2d2d5265676973746572696e672025732e2573206f6e2074686520636f6e7472616374207769746820746f6b656e49442025642d2d2d2d2d2d2d2d2d2d2d2d2d2d2d2d2d2d2d2d2d2d2d2d2d2d2d2d2d2d2d2d2d2d2d2d2d2d2d2d2d2d2d2d2d2d2d2d2d2d2d2d2d2d2d2d0a4142434445464748494a4b4c4d4e4f505152535455565758595a6162636465666768696a6b6c6d6e6f707172737475767778797a303132333435363738392b2fa26469706673582212208db7b0b49288fa2bbfb92f9a9d9f58456e0e1e4ab58e1cfd060307686af09f6f64736f6c634300080a00333c73766720786d6c6e733d22687474703a2f2f7777772e77332e6f72672f323030302f737667222077696474683d2232373022206865696768743d22323730222066696c6c3d226e6f6e65223e3c706174682066696c6c3d2275726c282342292220643d224d302030683237307632373048307a222f3e3c646566733e3c66696c7465722069643d22412220636f6c6f722d696e746572706f6c6174696f6e2d66696c746572733d2273524742222066696c746572556e6974733d227573657253706163654f6e55736522206865696768743d22323730222077696474683d22323730223e3c666544726f70536861646f772064783d2230222064793d22312220737464446576696174696f6e3d22322220666c6f6f642d6f7061636974793d222e323235222077696474683d223230302522206865696768743d2232303025222f3e3c2f66696c7465723e3c2f646566733e3c7061746820643d224d37322e3836332034322e393439632d2e3636382d2e3338372d312e3432362d2e35392d322e3139372d2e3539732d312e3532392e3230342d322e3139372e35396c2d31302e30383120362e3033322d362e383520332e3933342d31302e30383120362e303332632d2e3636382e3338372d312e3432362e35392d322e3139372e3539732d312e3532392d2e3230342d322e3139372d2e35396c2d382e3031332d342e37323161342e353220342e35322030203020312d312e3538392d312e363136632d2e3338342d2e3636352d2e3539342d312e3431382d2e3630382d322e313837762d392e3331632d2e3031332d2e3737352e3138352d312e3533382e3537322d322e32303861342e323520342e323520302030203120312e3632352d312e3539356c372e3838342d342e3539632e3636382d2e33383720312e3432362d2e353920322e3139372d2e353973312e3532392e32303420322e3139372e35396c372e38383420342e353961342e353220342e353220302030203120312e35383920312e363136632e3338342e3636352e35393420312e3431382e36303820322e31383776362e3033326c362e38352d342e303635762d362e303332632e3031332d2e3737352d2e3138352d312e3533382d2e3537322d322e32303861342e323520342e32352030203020302d312e3632352d312e3539354c34312e3435362032342e3539632d2e3636382d2e3338372d312e3432362d2e35392d322e3139372d2e3539732d312e3532392e3230342d322e3139372e35396c2d31342e38363420382e36353561342e323520342e32352030203020302d312e36323520312e353935632d2e3338372e36372d2e35383520312e3433342d2e35373220322e3230387631372e343431632d2e3031332e3737352e31383520312e3533382e35373220322e32303861342e323520342e323520302030203020312e36323520312e3539356c31342e38363420382e363535632e3636382e33383720312e3432362e353920322e3139372e353973312e3532392d2e32303420322e3139372d2e35396c31302e3038312d352e39303120362e38352d342e3036352031302e3038312d352e393031632e3636382d2e33383720312e3432362d2e353920322e3139372d2e353973312e3532392e32303420322e3139372e35396c372e38383420342e353961342e353220342e353220302030203120312e35383920312e363136632e3338342e3636352e35393420312e3431382e36303820322e31383776392e333131632e3031332e3737352d2e31383520312e3533382d2e35373220322e32303861342e323520342e32352030203020312d312e36323520312e3539356c2d372e38383420342e373231632d2e3636382e3338372d312e3432362e35392d322e3139372e3539732d312e3532392d2e3230342d322e3139372d2e35396c2d372e3838342d342e353961342e353220342e35322030203020312d312e3538392d312e363136632d2e3338352d2e3636352d2e3539342d312e3431382d2e3630382d322e313837762d362e3033326c2d362e383520342e30363576362e303332632d2e3031332e3737352e31383520312e3533382e35373220322e32303861342e323520342e323520302030203020312e36323520312e3539356c31342e38363420382e363535632e3636382e33383720312e3432362e353920322e3139372e353973312e3532392d2e32303420322e3139372d2e35396c31342e3836342d382e363535632e3635372d2e33393420312e3230342d2e393520312e3538392d312e363136732e3539342d312e3431382e3630392d322e3138375635352e353338632e3031332d2e3737352d2e3138352d312e3533382d2e3537322d322e32303861342e323520342e32352030203020302d312e3632352d312e3539356c2d31342e3939332d382e3738367a222066696c6c3d2223666666222f3e3c646566733e3c6c696e6561724772616469656e742069643d2242222078313d2230222079313d2230222078323d22323730222079323d2232373022206772616469656e74556e6974733d227573657253706163654f6e557365223e3c73746f702073746f702d636f6c6f723d2223636235656565222f3e3c73746f70206f66667365743d2231222073746f702d636f6c6f723d2223306364376534222073746f702d6f7061636974793d222e3939222f3e3c2f6c696e6561724772616469656e743e3c2f646566733e3c7465787420783d2233322e352220793d223233312220666f6e742d73697a653d223237222066696c6c3d2223666666222066696c7465723d2275726c282341292220666f6e742d66616d696c793d22506c7573204a616b617274612053616e732c44656a6156752053616e732c4e6f746f20436f6c6f7220456d6f6a692c4170706c6520436f6c6f7220456d6f6a692c73616e732d73657269662220666f6e742d7765696768743d22626f6c64223e",
  "linkReferences": {},
  "deployedLinkReferences": {}
}